:100C480050726563656E743A202020483A2020204F
:100C580000546F6F2048696768212120483A202096
:100C6800200054656D70657261747572653A202054
:100C78002020002020483A2020200000050D0100F7
:100C8800080D020F060D0200010F031102000213E6
:100C980001110200020F020D03000600020D0200FE
:100CA800080D020F060D0200010F020D0200020BD3
:100CB80002090200020701000C0D0200070D020FD5
:100CC800060D0200020F02110200021302110100B8
:100CD8000200010F020D030003090200020B010DBF
:100CE80002000209020D02000209020D0615051391
:100CF8000B000C14041202100200020E020C040C69
:100D0800050002140200021202100200010E020C79
:100D1800050C0500020A0200020C020E0200011076
:100D2800031202000114021602000218021603142C
:100D3800021202000210020E050E05000114030043
:100D4800011202100300010E020C040C050002142B
:100D58000200021202100200020E020C040C040C23
:100D68000200010E03000110021202000214021612
:100D780001000214021202000210020E060E060CF6
:100D8800020006FF0000F88CF8F3F95BF9B8FA15D1
:100D9800FA67FAB9FB04FB4BFB90FBCFFC10FC4451
:100DA800FC79FCACFCDCFD09FD34FD5CFD82FDA694
:100DB800FDC8FDE8FE06FE22FE3DFE56FE6EFE85DF
:100DC800FE9AFEAEFEC1FED3FEE4FEF4FF03000071
:100DD8000000000300C0000F00F0001F00FC003FEF
:100DE80000FE003F00FF007F00FF00FF00FE00FF45
:100DF80000FE00FF00FE00FF00F800EF00F800E72B
:100E080000F000E700E000E70000006F008000004D
:100E18000000000300C0000F00F0001F00FC003FAE
:100E280000FE003F00FF00FF00FF00FF00FE00FF84
:100E380000FE00FF00FE00EF00F800EF00F800E3FE
:100E4800001000E7008000FF00E0006F008000DC79
:100E580000C000BC00C900B500C500C600B000A6AF
:0E0E680000D000C300B800C000DE00BB00B226
:0A138800010B000209000001110032
:10118D00D2B0C2B1D2B2D2B37FC87E00121352D246
:10119D00B0D2B1D2B2C2B37FC87E00121352C2B068
:1011AD00D2B1D2B2D2B37FC87E00121352D2B0D216
:0C11BD00B1C2B2D2B37FC87E0002135250
:10133C005389F0438901E4F58AF58CC28DD28CD2A5
:06134C00A9D2AFC2B922D4
:1011C900E50B6026E50C900C8393FFF460178F08FC
:1011D900050CE4FF121352050CC28C7F057E001228
:0B11E9001352D28C22C28CE4F50B22C2
:10114F00E50B6034C3EF94C8EE94005015EF249C68
:10115F00FFEE34FFFE7C007D03120434EF04F5082C
:10116F0080037508247F647E00121352C28C7F01A6
:0E117F007E00121352D28C22C28CE4F50B2299
:040F32008F36A90548
:100F3600D2B6D2B5E4FD7E007480A805088006CE40
:100F4600A2E713CE13D8F8FFE536F582EF558224D3
:100F5600FF92B4C2B60000D2B60DBD08D9E4FD7E3C
:100F6600007480A805088006CEA2E713CE13D8F831
:100F7600FFE9F582EF558224FF92B4C2B60000D293
:100F8600B60DBD08DAE4FD7E007480A8050880066B
:100F9600CEA2E713CE13D8F8FFEBF582EF558224E5
:100FA600FF92B4C2B60000D2B60DBD08DAE4FD7EEB
:100FB600007480A805088006CEA2E713CE13D8F8E1
:100FC600FFE539FBEF5B24FF92B4C2B60000D2B650
:0C0FD6000DBD08DBC2B50000D2B5C2B4EE
:010FE20022EC
:10092000050AE50AAE097002050914FF7C007D0284
:10093000120489ED4C7003020AC1E4F534F535E484
:10094000F532F533AE32E5337802C333CE33CED849
:10095000F9FDAC0624D6F582740D3CF58374019341
:10096000F4FFC00774D82DF582740D3CF583740133
:1009700093F4FDC005C3E5339408E53264809480A8
:1009800050047F00801CAE32AF337C007D0812041F
:10099000897E007401A805088005C333CE33CED804
:1009A000F9FFAB07C3E5339408E5326480948050C7
:1009B000137E007401A833088005C333CE33CED82C
:1009C000F9FF80047E007F008F39D005D007120F19
:1009D000320533E53370020532C39410E53264808A
:1009E000948050030209440535E53570020534C38F
:1009F0009408E53464809480500302093FE4F534A0
:100A0000F535E4F532F533AE32E5337802C333CE53
:100A100033CED8F9FDAC062416F582740E3CF5836E
:100A2000740193F4FFC00774182DF582740E3CF521
:100A300083740193F4FDC005C3E5339408E5326483
:100A400080948050047F00801CAE32AF337C007DE8
:100A5000081204897E007401A805088005C333CEFE
:100A600033CED8F9FFAB07C3E5339408E532648091
:100A7000948050137E007401A833088005C333CEE0
:100A800033CED8F9FF80047E007F008F39D005D0A7
:100A900007120F320533E53370020532C39410E5B7
:100AA00032648094805003020A070535E5357002F0
:100AB0000534C39408E534648094805003020A022C
:100AC00022E4F534F535E4F532F533AE32E533782A
:100AD00002C333CE33CED8F9FDAC062416F58274AA
:100AE0000E3CF583740193F4FFC00774182DF58252
:100AF000740E3CF583740193F4FDC005C3E5339493
:100B000008E5326480948050047F00801CAE32AFD0
:100B1000337C007D081204897E007401A8050880DA
:100B200005C333CE33CED8F9FFAB07C3E533940802
:100B3000E5326480948050137E007401A8330880ED
:100B400005C333CE33CED8F9FF80047E007F008FFB
:100B500039D005D007120F320533E5337002053264
:100B6000C39410E532648094805003020ACB0535AB
:100B7000E53570020534C39408E5346480948050F0
:100B800003020AC6E4F534F535E4F532F533AE3246
:100B9000E5337802C333CE33CED8F9FDAC0624D684
:100BA000F582740D3CF583740193F4FFC00774D88B
:100BB0002DF582740D3CF583740193F4FDC005C3DB
:100BC000E5339408E5326480948050047F00801CF3
:100BD000AE32AF337C007D081204897E007401A818
:100BE00005088005C333CE33CED8F9FFAB07C3E584
:100BF000339408E5326480948050137E007401A819
:100C000033088005C333CE33CED8F9FF80047E008D
:100C10007F008F39D005D007120F320533E53370CE
:100C2000020532C39410E532648094805003020BB5
:100C30008E0535E53570020534C39408E5346480CB
:070C400094805003020B89B0
:010C4700228A
:10059B00752F1EE4F5307531021213677D017F0153
:1005AB00120E7612133C12137B7FE87E031213524A
:1005BB001211F48F248E238D228C2112137B121196
:1005CB00F48F108E0F8D0E8C0DE4FFFEFDFCAB1027
:1005DB00AA0FA90EA80D1202AC5013AF10AE0FAD9F
:1005EB000EAC0D1203258F108E0F8D0E8C0DE51199
:1005FB0070030207DFAF30EF3395E0FEAD2FED3325
:10060B0095E0FCC3ED9FFDEC9EFC12033BA804A9F7
:10061B0005AA06AB07E4FFFE7D807C3F12020F8F1D
:10062B00288E278D268C25AC30EC120340A804A90C
:10063B0005AA06AB07AF10AE0FAD0EAC0D12001135
:10064B00AB28AA27A926A8251201068F2C8E2B8D45
:10065B002A8C29AC31E4120340AB2CAA2BA92AA873
:10066B00291202AC40030206F37BFF7A0C79487D1A
:10067B00017F01121246E52FFB3395E0FA75360226
:10068B007D0E7F0112106FE4FFFE7DC87C42AB2C08
:10069B00AA2BA92AA829120106120374AB07AA06D2
:1006AB007536037D017F0212106F7B2E7D047F0256
:1006BB00121393E4FFFE7D7A7C44AB2CAA2BA92A60
:1006CB00A8291201061203747C007D0A120434AAB5
:1006DB0004AB057536017D057F0212106F7B257DFE
:1006EB00067F02121393804C7536037BE77A037DEA
:1006FB00017F0212106F7B2E7D047F021213937504
:10070B0036017B097A007D057F0212106F7B257DF8
:10071B00067F021213937BFF7A0C79597D017F01BF
:10072B00121246E52FFB3395E0FA7536027D0E7FEC
:10073B000112106FE4FFFE7D207C41AB2CAA2BA98C
:10074B002AA8291201061203748E2D8F2ED3E52EA3
:10075B009400E52D648094804022E52E940BE52DCA
:10076B0064809480500CE52E2406FD7BFF7F0212E3
:10077B001393E52E152E70D5152D80D1752D007583
:10078B002E0AE4FFFE7D207C41AB2CAA2BA92AA8C4
:10079B0029120106C004C005C006C007AC2DAD2E42
:1007AB00EC12033BA804A905AA06AB07D007D00699
:1007BB00D005D0041202AC60025003020875E52E7E
:1007CB002406FD7BFE7F02121393E52E152E70B2CD
:1007DB00152D80AE7BFF7A0C796A7D017F01121299
:1007EB00467BFF7A0C797B7D0A7F02121246E52F3E
:1007FB00FB3395E0FA7536027D0E7F0212106FE423
:10080B00FFFEFDFCAB10AA0FA90EA80D1202AC50F7
:10081B00047B2D80027B2B7D017F02121393AF1083
:10082B00AE0FAD0EAC0D120374AB07AA06753603F3
:10083B007D027F0212106F7B2E7D057F02121393B8
:10084B007F007E407D1C7C46AB10AA0FA90EA80D25
:10085B00120106120374E47B107A27F9F81204FBD9
:10086B007536047D067F0212106FAC2FEC1203401D
:10087B00AB10AA0FA90EA80D1202AC602B40297564
:10088B000B01E511601AE4FFFE7DC87C42AB2CAA7C
:10089B002BA92AA82912010612037412114F8003E7
:1008AB001211C91209208007E4F50BC28CF5082040
:1008BB00901A80032090097F147E0012135280F44B
:1008CB00E51170047F0180027F008F112091198048
:1008DB00032091097F147E0012135280F4D3E52F6D
:1008EB00648094804002152F20921080032092097F
:1008FB007F147E0012135280F4052F3093030205F0
:10090B00C680032093097F147E0012135280F47566
:05091B002F1E0205C6BD
:03000B000210C11F
:1010C100C0E0C083C082C0D075D000C006E508254D
:1010D100E0248CF582E4340DF5837401937002E40D
:1010E10093601AE50825E0248CF582E4340DF5833C
:1010F100E493FE740193F58AEEF58CB2A0D006D08C
:08110100D0D082D083D0E0328F
:0D137B0012126C7FCC12121F7F4402121F51
:1011F40012126C7FCC12121F7FBE12121F1212ED3C
:101204008F321212EDEFFEE532FFFDAC06EC120355
:0B1214003BE4FBFA7980784102020FF6
:101109004369616C6C6F0000000008150200000063
:1011190000020408101F000000000606000000007D
:10112900001111150A000000020408040200000061
:101139000E11000000000000040E1F0E0A1100002D
:061149000102030405068B
:10132400C2A6C2A58F80D2A77F017E00121352C22B
:08133400A77F017E00021352A5
:03130900E493FF6B
:10130C00D2A6C2A58F80D2A77F017E00121352C233
:08131C00A77F017E00021352BD
:1012B2008F3A8D3BE53AB40105E53B148009E53AE6
:0E12C200B4020AE53B243F4480FF12132422AD
:101367007F381213247F0C1213247F061213247F55
:041377000102132438
:0A1393008B321212B2AF3202130CBB
:061246008B358A36893762
:10124C001212B2E4F538AB35AA36A9378538827557
:0F125C0083001203F5FF600712130C053880E7BB
:01126B002260
:04106F008A348B35FF
:0D1073001212B2853637E537D394004040A5
:10108000753800753901E4FBE53714FFEBC39F5059
:1010900012AE38AF397C007D0A1204228E388F39A7
:1010A0000B80E5AC38AD39AE34AF351204347C007A
:0C10B0007D0A120434ED2430FF12130CF2
:0410BC00153780B9AB
:0110C000220D
:040E76008F328D33F7
:100E7A007F40121324E4F534E53490111093FF12E5
:100E8A00130C7F017E001213520534E534C39438E3
:100E9A0040E67BFF7A117909AD33AF321212467FF1
:100EAA00017E001213529011481213097F017E002D
:100EBA001213527F2812130C7F017E0012135290D4
:100ECA0011491213097F017E0012135290114AE44C
:100EDA0093FF12130C7F017E0012135290114BE400
:100EEA0093FF12130C7F017E0012135290114CE4EF
:100EFA0093FF12130C7F017E001213527F291213E3
:100F0A000C7F017E0012135290114DE493FF1213CD
:100F1A000C7F017E0012135290114EE493FF1213BC
:080F2A000C7F017E000213524E
:05000300007FF7DFFEA5
:0100080022D5
:05139D00007F20DFFECF
:0113A2002228
:0513A300007F04DFFEE5
:0113A8002222
:0513A900007F16DFFECD
:0113AE00221C
:10126C00A2AFE433FEC2AFD2B7C2B7120003D2B7FB
:10127C0012139DA2B7E433FD120003EE24FF92AFCC
:02128C00AF05AC
:01128E00223D
:1012D000A2AFE433FFC2AFC2B77E04DEFEA200922B
:0C12E000B77E18DEFED2B7EF24FF92AFFD
:0112EC0022DF
:10128F00A2AFE433FFC2AFC2B77E02DEFED2B77E9B
:10129F0002DEFEA2B792007E18DEFEEF24FF92AFB1
:0212AF00A2009B
:0112B100221A
:02121F00AD0719
:10122100E4FB7E007401A803088005C333CE33CEEE
:10123100D8F9FFEDF582EF558224FF92001212D00A
:041241000BBB08DEFD
:011245002286
:1012ED00E4FDFC12128F500DA8047401088002C396
:0B12FD0033D8FC42050CBC08EAAF052A
:0113080022C2
:10135200EF1FAC0670011E4C600A7D027CEFDCFEC2
:04136200DDFC80EC42
:011366002264
:10000E000203E0E86480F8E933E83360110460F03D
:10001E00ED33EC337009E8FCE9FDEAFEEBFF220458
:10002E0060DED3EB9FEA9EE99DE8C2E78CF0C2F753
:10003E0095F0400CE8CCF8E9CDF9EACEFAEBCFFB1F
:10004E001203AB85D0F05804700320D5B3E80470CA
:10005E00075002B2D50203EA92D5EC0460F7E4CC65
:10006E00C0E0C398F8603B94186008400DD0E0FBE8
:10007E000203C2E4FBFAC9FC8028E830E406E4C9B6
:10008E00FBE4CAFCE830E305E4C9CACBFCE854073C
:10009E006010F8C3E913F9EA13FAEB13FBEC13FC47
:1000AE00D8F130F52FC3E49CFCEF9BFFEE9AFEEDEA
:1000BE0099FDD0E0FBEF4E4D4C701222DB03020394
:1000CE00E7EC2CFCEF33FFEE33FEED33FDED30E7C6
:1000DE00EB0203C2EF2BFFEE3AFEED39FDD0E0FB53
:1000EE0050130BBB00030203EAED13FDEE13FEEFFC
:0800FE0013FFEC13FC0203C226
:10010600EC4D6011E8497017ED33EC3304600DE4F3
:10011600FCFFFEFD22E933E8330470F80203E01227
:1001260003AB58046009E4CC248150062850090228
:1001360003EA2840030203E7C0E0EB4A7044B980B3
:1001460006D0E0FB0203D6EF4E701CBD8008EBFF25
:10015600EAFEE9FD80EBE98DF0A4FEE5F00201EF91
:10016600E9CDF9EAFEEBFFEF89F0A4FCE5F0CE89D4
:10017600F0A42EFFE435F0CD89F0A42DFEE435F091
:100186008067EF4E7005BD80D780C3EF8BF0A4ACBF
:10019600F0EE8BF0A42CFCE435F0F8EF8AF0A42CFA
:1001A600E5F038FCE433CB8DF0A42CFCE5F03BF80D
:1001B600EE8AF0A42CFCE5F038F8E433CF89F0A4FD
:1001C6002CFCE5F038CF3400CE89F0A42FFFE5F003
:1001D6003EFEE433C98DF0A42EFEE5F039CD8AF05B
:1001E600A42FFFE5F03EFEE43DFD33D0E0FB5007D3
:1001F6000BBB000F0203EAEC2CFCEF33FFEE33FEE1
:06020600ED33FD0203C20E
:10020C000203EAEC5D046005E8590470030203E0A4
:10021C001203AB580460F6EC4860F2EC7004FDFE7F
:10022C00FF22C860DB2481C85009C39860025006C5
:10023C000203E79850CAF582E9294B4A7005AB8254
:10024C000203D675F0007C1A7880C3EF9BEE9AED12
:10025C0099400DC3EF9BFFEE9AFEED99FDE842F03D
:10026C00DC23ACF0D0E0FFD0E0FED0E0FDAB822090
:10027C00E7101BEB60BAEC2CFCEF33FFEE33FEED1A
:10028C0033FD0203C2E803F830E705C0F075F00057
:10029C00EF2FFFEE33FEED33FD40B830E7C280AAFE
:1002AC0074F8CC6480CCC86480C8F58204604FC3F9
:1002BC00EB9FF5F0EA9E42F0E99D42F0E89C45F098
:1002CC00603C501DE5825FFFE582D313CB5BCBF422
:1002DC002B5582FB50280ABA002409B9002008804B
:1002EC001DE5825BFBE582D313CF5FCFF4C3132FE5
:1002FC005582FF50090EBE00050DBD00010CC3EB6D
:10030C009FF5F0EA9E42F0E99D42F0E89C45F060D2
:09031C0007CC4820E701B3EC22F4
:10032500ED33EC33600A047003BD8004ECB2E7FCE6
:0103350022A5
:1003360075F020800E75F010800575F0087D007E42
:10034600007F003392D530D50312058DEC33401073
:10035600EF33FFEE33FEED33FDEC33FCD5F0ED224B
:0E036600E5F0247EA2D513CC92E7CDCEFF2287
:10037400EDD2E7CD33EC3392D524814006E4FFFE81
:10038400FDFC22FCE4CFCECDCC24E0501174FF80E0
:10039400EDC3CC13CCCD13CDCE13CECF13CF04707D
:0703A400F030D5DE02058DEB
:1003AB00E9D2E7C933E833F892D5EDD2E7CD33EC98
:0703BB0033FC5002B2D52211
:1003C200EC30E7100FBF000C0EBE00080DBD00049C
:1003D2000BEB6014A2D5EB13FCED92E7FD2274FF48
:1003E200FCFDFEFF22E480F8A2D574FF13FC7D80A1
:0303F200E480EFB5
:03000000020FE309
:0C0FE300787FE4F6D8FD75813B02102AEF
:1003F500BB010CE58229F582E5833AF583E02250BD
:1004050006E92582F8E622BBFE06E92582F8E22206
:0D041500E58229F582E5833AF583E4932220
:10042200EF8DF0A4A8F0CF8CF0A428CE8DF0A42EEE
:02043200FE22A8
:10043400BC000BBE0029EF8DF084FFADF022E4CCAC
:10044400F875F008EF2FFFEE33FEEC33FCEE9DEC75
:10045400984005FCEE9DFE0FD5F0E9E4CEFD22EDBB
:10046400F8F5F0EE8420D21CFEADF075F008EF2F05
:10047400FFED33FD4007985006D5F0F222C398FDF6
:050484000FD5F0EA2293
:10048900C2D5EC30E709B2D5E4C39DFDE49CFCEE8E
:1004990030E715B2D5E4C39FFFE49EFE120434C3CE
:1004A900E49DFDE49CFC800312043430D507C3E4C9
:0604B9009FFFE49EFE22FD
:1004BF0075F008758200EF2FFFEE33FECD33CDCCF4
:1004CF0033CCC58233C5829BED9AEC99E582984077
:1004DF000CF582EE9BFEED9AFDEC99FC0FD5F0D654
:1004EF00E4CEFBE4CDFAE4CCF9A88222B800C1B97E
:1004FF000059BA002DEC8BF084CFCECDFCE5F0CBBC
:10050F00F97818EF2FFFEE33FEED33FDEC33FCEBF4
:10051F0033FB10D703994004EB99FB0FD8E5E4F9AF
:10052F00FA227818EF2FFFEE33FEED33FDEC33FC9C
:10053F00C933C910D7059BE99A4007EC9BFCE99A90
:10054F00F90FD8E0E4C9FAE4CCFB2275F010EF2FD5
:10055F00FFEE33FEED33FDCC33CCC833C810D707D5
:10056F009BEC9AE899400AED9BFDEC9AFCE899F810
:0E057F000FD5F0DAE4CDFBE4CCFAE4C8F922A3
:0E058D00C3E49FFFE49EFEE49DFDE49CFC227F
:100FEF0002059BE493A3F8E493A34003F68001F278
:100FFF0008DFF48029E493A3F85407240CC8C33303
:10100F00C4540F4420C8834004F456800146F6DFD1
:10101F00E4800B0102040810204080901388E47EC6
:10102F00019360BCA3FF543F30E509541FFEE493C6
:10103F00A360010ECF54C025E060A840B8E493A38D
:10104F00FAE493A3F8E493A3C8C582C8CAC583CAB8
:10105F00F0A3C8C582C8CAC583CADFE9DEE780BE70
:01139200005A
:00000001FF
